{
  "contractName": "Presale",
  "abi": [
    {
      "inputs": [
        {
          "internalType": "contract Disastergirltoken",
          "name": "_token",
          "type": "address"
        }
      ],
      "stateMutability": "nonpayable",
      "type": "constructor"
    },
    {
      "anonymous": false,
      "inputs": [
        {
          "indexed": true,
          "internalType": "address",
          "name": "previousOwner",
          "type": "address"
        },
        {
          "indexed": true,
          "internalType": "address",
          "name": "newOwner",
          "type": "address"
        }
      ],
      "name": "OwnershipTransferred",
      "type": "event"
    },
    {
      "anonymous": false,
      "inputs": [
        {
          "indexed": false,
          "internalType": "address",
          "name": "account",
          "type": "address"
        },
        {
          "indexed": false,
          "internalType": "address",
          "name": "token",
          "type": "address"
        },
        {
          "indexed": false,
          "internalType": "uint256",
          "name": "amount",
          "type": "uint256"
        },
        {
          "indexed": false,
          "internalType": "uint256",
          "name": "rate",
          "type": "uint256"
        }
      ],
      "name": "TokenPurchased",
      "type": "event"
    },
    {
      "inputs": [],
      "name": "geUnlockTime",
      "outputs": [
        {
          "internalType": "uint256",
          "name": "",
          "type": "uint256"
        }
      ],
      "stateMutability": "view",
      "type": "function",
      "constant": true
    },
    {
      "inputs": [],
      "name": "isActive",
      "outputs": [
        {
          "internalType": "bool",
          "name": "",
          "type": "bool"
        }
      ],
      "stateMutability": "view",
      "type": "function",
      "constant": true
    },
    {
      "inputs": [
        {
          "internalType": "uint256",
          "name": "time",
          "type": "uint256"
        }
      ],
      "name": "lock",
      "outputs": [],
      "stateMutability": "nonpayable",
      "type": "function"
    },
    {
      "inputs": [],
      "name": "name",
      "outputs": [
        {
          "internalType": "string",
          "name": "",
          "type": "string"
        }
      ],
      "stateMutability": "view",
      "type": "function",
      "constant": true
    },
    {
      "inputs": [],
      "name": "owner",
      "outputs": [
        {
          "internalType": "address",
          "name": "",
          "type": "address"
        }
      ],
      "stateMutability": "view",
      "type": "function",
      "constant": true
    },
    {
      "inputs": [],
      "name": "rate",
      "outputs": [
        {
          "internalType": "uint256",
          "name": "",
          "type": "uint256"
        }
      ],
      "stateMutability": "view",
      "type": "function",
      "constant": true
    },
    {
      "inputs": [],
      "name": "renounceOwnership",
      "outputs": [],
      "stateMutability": "nonpayable",
      "type": "function"
    },
    {
      "inputs": [],
      "name": "token",
      "outputs": [
        {
          "internalType": "contract Disastergirltoken",
          "name": "",
          "type": "address"
        }
      ],
      "stateMutability": "view",
      "type": "function",
      "constant": true
    },
    {
      "inputs": [
        {
          "internalType": "address",
          "name": "newOwner",
          "type": "address"
        }
      ],
      "name": "transferOwnership",
      "outputs": [],
      "stateMutability": "nonpayable",
      "type": "function"
    },
    {
      "inputs": [],
      "name": "unlock",
      "outputs": [],
      "stateMutability": "nonpayable",
      "type": "function"
    },
    {
      "inputs": [],
      "name": "buyTokens",
      "outputs": [],
      "stateMutability": "payable",
      "type": "function",
      "payable": true
    },
    {
      "inputs": [],
      "name": "togglePresale",
      "outputs": [],
      "stateMutability": "nonpayable",
      "type": "function"
    },
    {
      "inputs": [],
      "name": "withdrawBNB",
      "outputs": [],
      "stateMutability": "nonpayable",
      "type": "function"
    },
    {
      "inputs": [],
      "name": "withdrawDISG",
      "outputs": [],
      "stateMutability": "nonpayable",
      "type": "function"
    },
    {
      "inputs": [
        {
          "internalType": "uint256",
          "name": "_rate",
          "type": "uint256"
        }
      ],
      "name": "setRate",
      "outputs": [],
      "stateMutability": "nonpayable",
      "type": "function"
    },
    {
      "inputs": [
        {
          "internalType": "uint256",
          "name": "taxFee",
          "type": "uint256"
        }
      ],
      "name": "TAXFEE",
      "outputs": [],
      "stateMutability": "nonpayable",
      "type": "function"
    },
    {
      "inputs": [
        {
          "internalType": "uint256",
          "name": "burnFee",
          "type": "uint256"
        }
      ],
      "name": "BURNFEE",
      "outputs": [],
      "stateMutability": "nonpayable",
      "type": "function"
    }
  ],
  "bytecode": "0x60806040526040518060400160405280600c81526020017f444953472050726573616c6500000000000000000000000000000000000000008152506003908051906020019062000051929190620001bc565b50630bebc2006005556000600660006101000a81548160ff021916908315150217905550610258600755610258600855633b9aca006009553480156200009657600080fd5b506040516200240d3803806200240d8339818101604052810190620000bc919062000283565b6000620000ce620001b460201b60201c565b9050806000806101000a81548173ffffffffffffffffffffffffffffffffffffffff021916908373ffffffffffffffffffffffffffffffffffffffff1602179055508073ffffffffffffffffffffffffffffffffffffffff16600073ffffffffffffffffffffffffffffffffffffffff167f8be0079c531659141344cd1fd0a4f28419497f9722a3daafe3b4186f6b6457e060405160405180910390a35080600460006101000a81548173ffffffffffffffffffffffffffffffffffffffff021916908373ffffffffffffffffffffffffffffffffffffffff1602179055505062000376565b600033905090565b828054620001ca90620002f7565b90600052602060002090601f016020900481019282620001ee57600085556200023a565b82601f106200020957805160ff19168380011785556200023a565b828001600101855582156200023a579182015b82811115620002395782518255916020019190600101906200021c565b5b5090506200024991906200024d565b5090565b5b80821115620002685760008160009055506001016200024e565b5090565b6000815190506200027d816200035c565b92915050565b6000602082840312156200029657600080fd5b6000620002a6848285016200026c565b91505092915050565b6000620002bc82620002d7565b9050919050565b6000620002d082620002af565b9050919050565b600073ffffffffffffffffffffffffffffffffffffffff82169050919050565b600060028204905060018216806200031057607f821691505b602082108114156200032757620003266200032d565b5b50919050565b7f4e487b7100000000000000000000000000000000000000000000000000000000600052602260045260246000fd5b6200036781620002c3565b81146200037357600080fd5b50565b61208780620003866000396000f3fe6080604052600436106100fe5760003560e01c80638da5cb5b11610095578063d4111a1011610064578063d4111a1014610280578063dd467064146102a9578063f2fde38b146102d2578063f90100cd146102fb578063fc0c546a14610324576100fe565b80638da5cb5b14610209578063a69df4b514610234578063b6c523241461024b578063d0febe4c14610276576100fe565b80632c4e722e116100d15780632c4e722e1461018757806334393743146101b257806334fcf437146101c9578063715018a6146101f2576100fe565b806306fdde03146101035780630e4c33a61461012e5780631d111d131461014557806322f3e2d41461015c575b600080fd5b34801561010f57600080fd5b5061011861034f565b60405161012591906119bd565b60405180910390f35b34801561013a57600080fd5b506101436103dd565b005b34801561015157600080fd5b5061015a6105ce565b005b34801561016857600080fd5b506101716106c3565b60405161017e9190611987565b60405180910390f35b34801561019357600080fd5b5061019c6106d6565b6040516101a99190611b1f565b60405180910390f35b3480156101be57600080fd5b506101c76106dc565b005b3480156101d557600080fd5b506101f060048036038101906101eb91906116d9565b61079d565b005b3480156101fe57600080fd5b5061020761083c565b005b34801561021557600080fd5b5061021e61098f565b60405161022b91906118fe565b60405180910390f35b34801561024057600080fd5b506102496109b8565b005b34801561025757600080fd5b50610260610b8c565b60405161026d9190611b1f565b60405180910390f35b61027e610b96565b005b34801561028c57600080fd5b506102a760048036038101906102a291906116d9565b610f0a565b005b3480156102b557600080fd5b506102d060048036038101906102cb91906116d9565b610fa9565b005b3480156102de57600080fd5b506102f960048036038101906102f49190611687565b611170565b005b34801561030757600080fd5b50610322600480360381019061031d91906116d9565b611332565b005b34801561033057600080fd5b506103396113d1565b60405161034691906119a2565b60405180910390f35b6003805461035c90611d0a565b80601f016020809104026020016040519081016040528092919081815260200182805461038890611d0a565b80156103d55780601f106103aa576101008083540402835291602001916103d5565b820191906000526020600020905b8154815290600101906020018083116103b857829003601f168201915b505050505081565b6103e56113f7565b73ffffffffffffffffffffffffffffffffffffffff1660008054906101000a900473ffffffffffffffffffffffffffffffffffffffff1673ffffffffffffffffffffffffffffffffffffffff1614610472576040517f08c379a000000000000000000000000000000000000000000000000000000000815260040161046990611abf565b60405180910390fd5b600460009054906101000a900473ffffffffffffffffffffffffffffffffffffffff1673ffffffffffffffffffffffffffffffffffffffff1663a9059cbb33600460009054906101000a900473ffffffffffffffffffffffffffffffffffffffff1673ffffffffffffffffffffffffffffffffffffffff166370a08231306040518263ffffffff1660e01b815260040161050c91906118fe565b60206040518083038186803b15801561052457600080fd5b505afa158015610538573d6000803e3d6000fd5b505050506040513d601f19601f8201168201806040525081019061055c9190611702565b6040518363ffffffff1660e01b815260040161057992919061195e565b602060405180830381600087803b15801561059357600080fd5b505af11580156105a7573d6000803e3d6000fd5b505050506040513d601f19601f820116820180604052508101906105cb91906116b0565b50565b6105d66113f7565b73ffffffffffffffffffffffffffffffffffffffff1660008054906101000a900473ffffffffffffffffffffffffffffffffffffffff1673ffffffffffffffffffffffffffffffffffffffff1614610663576040517f08c379a000000000000000000000000000000000000000000000000000000000815260040161065a90611abf565b60405180910390fd5b3373ffffffffffffffffffffffffffffffffffffffff166108fc3073ffffffffffffffffffffffffffffffffffffffff16319081150290604051600060405180830381858888f193505050501580156106c0573d6000803e3d6000fd5b50565b600660009054906101000a900460ff1681565b60055481565b6106e46113f7565b73ffffffffffffffffffffffffffffffffffffffff1660008054906101000a900473ffffffffffffffffffffffffffffffffffffffff1673ffffffffffffffffffffffffffffffffffffffff1614610771576040517f08c379a000000000000000000000000000000000000000000000000000000000815260040161076890611abf565b60405180910390fd5b600660009054906101000a900460ff1615600660006101000a81548160ff021916908315150217905550565b6107a56113f7565b73ffffffffffffffffffffffffffffffffffffffff1660008054906101000a900473ffffffffffffffffffffffffffffffffffffffff1673ffffffffffffffffffffffffffffffffffffffff1614610832576040517f08c379a000000000000000000000000000000000000000000000000000000000815260040161082990611abf565b60405180910390fd5b8060058190555050565b6108446113f7565b73ffffffffffffffffffffffffffffffffffffffff1660008054906101000a900473ffffffffffffffffffffffffffffffffffffffff1673ffffffffffffffffffffffffffffffffffffffff16146108d1576040517f08c379a00000000000000000000000000000000000000000000000000000000081526004016108c890611abf565b60405180910390fd5b600073ffffffffffffffffffffffffffffffffffffffff1660008054906101000a900473ffffffffffffffffffffffffffffffffffffffff1673ffffffffffffffffffffffffffffffffffffffff167f8be0079c531659141344cd1fd0a4f28419497f9722a3daafe3b4186f6b6457e060405160405180910390a360008060006101000a81548173ffffffffffffffffffffffffffffffffffffffff021916908373ffffffffffffffffffffffffffffffffffffffff160217905550565b60008060009054906101000a900473ffffffffffffffffffffffffffffffffffffffff16905090565b3373ffffffffffffffffffffffffffffffffffffffff16600160009054906101000a900473ffffffffffffffffffffffffffffffffffffffff1673ffffffffffffffffffffffffffffffffffffffff1614610a48576040517f08c379a0000000000000000000000000000000000000000000000000000000008152600401610a3f90611aff565b60405180910390fd5b6002544211610a8c576040517f08c379a0000000000000000000000000000000000000000000000000000000008152600401610a8390611adf565b60405180910390fd5b600160009054906101000a900473ffffffffffffffffffffffffffffffffffffffff1673ffffffffffffffffffffffffffffffffffffffff1660008054906101000a900473ffffffffffffffffffffffffffffffffffffffff1673ffffffffffffffffffffffffffffffffffffffff167f8be0079c531659141344cd1fd0a4f28419497f9722a3daafe3b4186f6b6457e060405160405180910390a3600160009054906101000a900473ffffffffffffffffffffffffffffffffffffffff166000806101000a81548173ffffffffffffffffffffffffffffffffffffffff021916908373ffffffffffffffffffffffffffffffffffffffff160217905550565b6000600254905090565b600660009054906101000a900460ff16610be5576040517f08c379a0000000000000000000000000000000000000000000000000000000008152600401610bdc90611a5f565b60405180910390fd5b662386f26fc10000341015610c2f576040517f08c379a0000000000000000000000000000000000000000000000000000000008152600401610c2690611a7f565b60405180910390fd5b6000612710905080610c4e6007546008546113ff90919063ffffffff16565b1115610c8f576040517f08c379a0000000000000000000000000000000000000000000000000000000008152600401610c8690611a3f565b60405180910390fd5b6000610d06610cbd600854610caf6007548661145d90919063ffffffff16565b61145d90919063ffffffff16565b610cf884610cea600954610cdc600554346114a790919063ffffffff16565b61152290919063ffffffff16565b6114a790919063ffffffff16565b61152290919063ffffffff16565b905080600460009054906101000a900473ffffffffffffffffffffffffffffffffffffffff1673ffffffffffffffffffffffffffffffffffffffff166370a08231306040518263ffffffff1660e01b8152600401610d6491906118fe565b60206040518083038186803b158015610d7c57600080fd5b505afa158015610d90573d6000803e3d6000fd5b505050506040513d601f19601f82011682018060405250810190610db49190611702565b1015610df5576040517f08c379a0000000000000000000000000000000000000000000000000000000008152600401610dec906119df565b60405180910390fd5b600460009054906101000a900473ffffffffffffffffffffffffffffffffffffffff1673ffffffffffffffffffffffffffffffffffffffff1663a9059cbb33836040518363ffffffff1660e01b8152600401610e5292919061195e565b602060405180830381600087803b158015610e6c57600080fd5b505af1158015610e80573d6000803e3d6000fd5b505050506040513d601f19601f82011682018060405250810190610ea491906116b0565b507f8daf503382665d950e449b86172be5222275c90f4ddf69c29fdaa8237a562a6d33600460009054906101000a900473ffffffffffffffffffffffffffffffffffffffff1683600554604051610efe9493929190611919565b60405180910390a15050565b610f126113f7565b73ffffffffffffffffffffffffffffffffffffffff1660008054906101000a900473ffffffffffffffffffffffffffffffffffffffff1673ffffffffffffffffffffffffffffffffffffffff1614610f9f576040517f08c379a0000000000000000000000000000000000000000000000000000000008152600401610f9690611abf565b60405180910390fd5b8060088190555050565b610fb16113f7565b73ffffffffffffffffffffffffffffffffffffffff1660008054906101000a900473ffffffffffffffffffffffffffffffffffffffff1673ffffffffffffffffffffffffffffffffffffffff161461103e576040517f08c379a000000000000000000000000000000000000000000000000000000000815260040161103590611abf565b60405180910390fd5b60008054906101000a900473ffffffffffffffffffffffffffffffffffffffff16600160006101000a81548173ffffffffffffffffffffffffffffffffffffffff021916908373ffffffffffffffffffffffffffffffffffffffff16021790555060008060006101000a81548173ffffffffffffffffffffffffffffffffffffffff021916908373ffffffffffffffffffffffffffffffffffffffff16021790555080426110ec9190611b56565b600281905550600073ffffffffffffffffffffffffffffffffffffffff1660008054906101000a900473ffffffffffffffffffffffffffffffffffffffff1673ffffffffffffffffffffffffffffffffffffffff167f8be0079c531659141344cd1fd0a4f28419497f9722a3daafe3b4186f6b6457e060405160405180910390a350565b6111786113f7565b73ffffffffffffffffffffffffffffffffffffffff1660008054906101000a900473ffffffffffffffffffffffffffffffffffffffff1673ffffffffffffffffffffffffffffffffffffffff1614611205576040517f08c379a00000000000000000000000000000000000000000000000000000000081526004016111fc90611abf565b60405180910390fd5b600073ffffffffffffffffffffffffffffffffffffffff168173ffffffffffffffffffffffffffffffffffffffff161415611275576040517f08c379a000000000000000000000000000000000000000000000000000000000815260040161126c906119ff565b60405180910390fd5b8073ffffffffffffffffffffffffffffffffffffffff1660008054906101000a900473ffffffffffffffffffffffffffffffffffffffff1673ffffffffffffffffffffffffffffffffffffffff167f8be0079c531659141344cd1fd0a4f28419497f9722a3daafe3b4186f6b6457e060405160405180910390a3806000806101000a81548173ffffffffffffffffffffffffffffffffffffffff021916908373ffffffffffffffffffffffffffffffffffffffff16021790555050565b61133a6113f7565b73ffffffffffffffffffffffffffffffffffffffff1660008054906101000a900473ffffffffffffffffffffffffffffffffffffffff1673ffffffffffffffffffffffffffffffffffffffff16146113c7576040517f08c379a00000000000000000000000000000000000000000000000000000000081526004016113be90611abf565b60405180910390fd5b8060078190555050565b600460009054906101000a900473ffffffffffffffffffffffffffffffffffffffff1681565b600033905090565b600080828461140e9190611b56565b905083811015611453576040517f08c379a000000000000000000000000000000000000000000000000000000000815260040161144a90611a1f565b60405180910390fd5b8091505092915050565b600061149f83836040518060400160405280601e81526020017f536166654d6174683a207375627472616374696f6e206f766572666c6f77000081525061156c565b905092915050565b6000808314156114ba576000905061151c565b600082846114c89190611bdd565b90508284826114d79190611bac565b14611517576040517f08c379a000000000000000000000000000000000000000000000000000000000815260040161150e90611a9f565b60405180910390fd5b809150505b92915050565b600061156483836040518060400160405280601a81526020017f536166654d6174683a206469766973696f6e206279207a65726f0000000000008152506115d0565b905092915050565b60008383111582906115b4576040517f08c379a00000000000000000000000000000000000000000000000000000000081526004016115ab91906119bd565b60405180910390fd5b50600083856115c39190611c37565b9050809150509392505050565b60008083118290611617576040517f08c379a000000000000000000000000000000000000000000000000000000000815260040161160e91906119bd565b60405180910390fd5b50600083856116269190611bac565b9050809150509392505050565b6000813590506116428161200c565b92915050565b60008151905061165781612023565b92915050565b60008135905061166c8161203a565b92915050565b6000815190506116818161203a565b92915050565b60006020828403121561169957600080fd5b60006116a784828501611633565b91505092915050565b6000602082840312156116c257600080fd5b60006116d084828501611648565b91505092915050565b6000602082840312156116eb57600080fd5b60006116f98482850161165d565b91505092915050565b60006020828403121561171457600080fd5b600061172284828501611672565b91505092915050565b61173481611c6b565b82525050565b61174381611c7d565b82525050565b61175281611cb3565b82525050565b600061176382611b3a565b61176d8185611b45565b935061177d818560208601611cd7565b61178681611dc9565b840191505092915050565b600061179e602783611b45565b91506117a982611dda565b604082019050919050565b60006117c1602683611b45565b91506117cc82611e29565b604082019050919050565b60006117e4601b83611b45565b91506117ef82611e78565b602082019050919050565b6000611807602083611b45565b915061181282611ea1565b602082019050919050565b600061182a601283611b45565b915061183582611eca565b602082019050919050565b600061184d602083611b45565b915061185882611ef3565b602082019050919050565b6000611870602183611b45565b915061187b82611f1c565b604082019050919050565b6000611893602083611b45565b915061189e82611f6b565b602082019050919050565b60006118b6601f83611b45565b91506118c182611f94565b602082019050919050565b60006118d9602383611b45565b91506118e482611fbd565b604082019050919050565b6118f881611ca9565b82525050565b6000602082019050611913600083018461172b565b92915050565b600060808201905061192e600083018761172b565b61193b602083018661172b565b61194860408301856118ef565b61195560608301846118ef565b95945050505050565b6000604082019050611973600083018561172b565b61198060208301846118ef565b9392505050565b600060208201905061199c600083018461173a565b92915050565b60006020820190506119b76000830184611749565b92915050565b600060208201905081810360008301526119d78184611758565b905092915050565b600060208201905081810360008301526119f881611791565b9050919050565b60006020820190508181036000830152611a18816117b4565b9050919050565b60006020820190508181036000830152611a38816117d7565b9050919050565b60006020820190508181036000830152611a58816117fa565b9050919050565b60006020820190508181036000830152611a788161181d565b9050919050565b60006020820190508181036000830152611a9881611840565b9050919050565b60006020820190508181036000830152611ab881611863565b9050919050565b60006020820190508181036000830152611ad881611886565b9050919050565b60006020820190508181036000830152611af8816118a9565b9050919050565b60006020820190508181036000830152611b18816118cc565b9050919050565b6000602082019050611b3460008301846118ef565b92915050565b600081519050919050565b600082825260208201905092915050565b6000611b6182611ca9565b9150611b6c83611ca9565b9250827fffffffffffffffffffffffffffffffffffffffffffffffffffffffffffffffff03821115611ba157611ba0611d3c565b5b828201905092915050565b6000611bb782611ca9565b9150611bc283611ca9565b925082611bd257611bd1611d6b565b5b828204905092915050565b6000611be882611ca9565b9150611bf383611ca9565b9250817fffffffffffffffffffffffffffffffffffffffffffffffffffffffffffffffff0483118215151615611c2c57611c2b611d3c565b5b828202905092915050565b6000611c4282611ca9565b9150611c4d83611ca9565b925082821015611c6057611c5f611d3c565b5b828203905092915050565b6000611c7682611c89565b9050919050565b60008115159050919050565b600073ffffffffffffffffffffffffffffffffffffffff82169050919050565b6000819050919050565b6000611cbe82611cc5565b9050919050565b6000611cd082611c89565b9050919050565b60005b83811015611cf5578082015181840152602081019050611cda565b83811115611d04576000848401525b50505050565b60006002820490506001821680611d2257607f821691505b60208210811415611d3657611d35611d9a565b5b50919050565b7f4e487b7100000000000000000000000000000000000000000000000000000000600052601160045260246000fd5b7f4e487b7100000000000000000000000000000000000000000000000000000000600052601260045260246000fd5b7f4e487b7100000000000000000000000000000000000000000000000000000000600052602260045260246000fd5b6000601f19601f8301169050919050565b7f4e6f7420656e6f756768742062616c616e6365206f6e2050726573616c65204360008201527f6f6e747261637400000000000000000000000000000000000000000000000000602082015250565b7f4f776e61626c653a206e6577206f776e657220697320746865207a65726f206160008201527f6464726573730000000000000000000000000000000000000000000000000000602082015250565b7f536166654d6174683a206164646974696f6e206f766572666c6f770000000000600082015250565b7f4275726e20466565202b2054617820466565203e3d206d61784665654275726e600082015250565b7f50726573616c65206e6f74206163746976650000000000000000000000000000600082015250565b7f4d696e696d756d20707572636861736520616d6f756e7420302e303120424e42600082015250565b7f536166654d6174683a206d756c7469706c69636174696f6e206f766572666c6f60008201527f7700000000000000000000000000000000000000000000000000000000000000602082015250565b7f4f776e61626c653a2063616c6c6572206973206e6f7420746865206f776e6572600082015250565b7f436f6e7472616374206973206c6f636b656420756e74696c2037206461797300600082015250565b7f596f7520646f6e27742068617665207065726d697373696f6e20746f20756e6c60008201527f6f636b0000000000000000000000000000000000000000000000000000000000602082015250565b61201581611c6b565b811461202057600080fd5b50565b61202c81611c7d565b811461203757600080fd5b50565b61204381611ca9565b811461204e57600080fd5b5056fea2646970667358221220dead45b4e46bb36bef200123e4a8e9dda795ef55e1876b63979343af45cdc81f64736f6c63430008040033",
  "immutableReferences": {},
  "source": "// SPDX-License-Identifier: MIT\r\npragma solidity ^0.8.3;\r\n\r\nimport \"./Token.sol\";\r\n\r\ncontract Presale is Ownable {\r\n    using SafeMath for uint256;\r\n    using Address for address;\r\n    string public name = \"DISG Presale\";\r\n    Disastergirltoken public token;\r\n    uint256 public rate = 200 * 10**6;\r\n    bool public isActive = false;\r\n    uint256 private _TAX_FEE = 600;\r\n    uint256 private _BURN_FEE = 600;\r\n    uint256 private _DECIMALFACTOR = 10**9;\r\n\r\n    modifier presaleActive() {\r\n        require(isActive, \"Presale not active\");\r\n        _;\r\n    }\r\n\r\n    event TokenPurchased(\r\n        address account,\r\n        address token,\r\n        uint256 amount,\r\n        uint256 rate\r\n    );\r\n\r\n    constructor(Disastergirltoken _token) {\r\n        token = _token;\r\n    }\r\n\r\n    function buyTokens() public payable presaleActive() {\r\n        require(msg.value >= 1 * 10**16, \"Minimum purchase amount 0.01 BNB\");\r\n        // Calculate the number of tokens to buy\r\n        uint256 maxFeeBurn = 10000;\r\n        require(_BURN_FEE.add(_TAX_FEE) <= maxFeeBurn, \"Burn Fee + Tax Fee >= maxFeeBurn\");\r\n        uint256 tokenAmount = msg.value.mul(rate).div(_DECIMALFACTOR).mul(maxFeeBurn).div(maxFeeBurn.sub(_TAX_FEE).sub(_BURN_FEE));\r\n\r\n        // Require that Presale has enough tokens\r\n        require(\r\n            token.balanceOf(address(this)) >= tokenAmount,\r\n            \"Not enought balance on Presale Contract\"\r\n        );\r\n\r\n        // Transfer tokens to the user\r\n        token.transfer(msg.sender, tokenAmount);\r\n\r\n        // Emit an event\r\n        emit TokenPurchased(msg.sender, address(token), tokenAmount, rate);\r\n    }\r\n\r\n    function togglePresale() public onlyOwner() {\r\n        isActive = !isActive;\r\n    }\r\n\r\n    function withdrawBNB() public onlyOwner() {\r\n        payable(msg.sender).transfer(address(this).balance);\r\n    }\r\n\r\n    function withdrawDISG() public onlyOwner() {\r\n        token.transfer(msg.sender, token.balanceOf(address(this)));\r\n    }\r\n\r\n    function setRate(uint256 _rate) public onlyOwner() {\r\n        rate = _rate;\r\n    }\r\n\r\n    function TAXFEE(uint256 taxFee) external onlyOwner() {\r\n        _TAX_FEE = taxFee;\r\n    }\r\n\r\n    function BURNFEE(uint256 burnFee) external onlyOwner() {\r\n        _BURN_FEE = burnFee;\r\n    }\r\n}\r\n",
  "sourcePath": "U:/Cancio/Documents/disaster-girl-token/disg-presale/src/contracts/Presale.sol",
  "compiler": {
    "name": "solc",
    "version": "0.8.4+commit.c7e474f2.Emscripten.clang"
  },
  "schemaVersion": "3.3.4",
  "updatedAt": "2021-05-25T19:26:15.525Z",
  "networkType": "ethereum",
  "devdoc": {
    "kind": "dev",
    "methods": {},
    "version": 1
  },
  "userdoc": {
    "kind": "user",
    "methods": {},
    "version": 1
  }
}